{
  "contractName": "Foundation",
  "abi": [
    {
      "constant": true,
      "inputs": [
        {
          "name": "",
          "type": "address"
        },
        {
          "name": "",
          "type": "uint256"
        }
      ],
      "name": "contractsToKnownMembersIndexes",
      "outputs": [
        {
          "name": "",
          "type": "address"
        }
      ],
      "payable": false,
      "stateMutability": "view",
      "type": "function"
    },
    {
      "constant": true,
      "inputs": [
        {
          "name": "",
          "type": "address"
        }
      ],
      "name": "contractsToOwners",
      "outputs": [
        {
          "name": "",
          "type": "address"
        }
      ],
      "payable": false,
      "stateMutability": "view",
      "type": "function"
    },
    {
      "constant": true,
      "inputs": [
        {
          "name": "",
          "type": "address"
        }
      ],
      "name": "ownersToContracts",
      "outputs": [
        {
          "name": "",
          "type": "address"
        }
      ],
      "payable": false,
      "stateMutability": "view",
      "type": "function"
    },
    {
      "constant": false,
      "inputs": [],
      "name": "renounceOwnership",
      "outputs": [],
      "payable": false,
      "stateMutability": "nonpayable",
      "type": "function"
    },
    {
      "constant": true,
      "inputs": [],
      "name": "owner",
      "outputs": [
        {
          "name": "",
          "type": "address"
        }
      ],
      "payable": false,
      "stateMutability": "view",
      "type": "function"
    },
    {
      "constant": true,
      "inputs": [],
      "name": "isOwner",
      "outputs": [
        {
          "name": "",
          "type": "bool"
        }
      ],
      "payable": false,
      "stateMutability": "view",
      "type": "function"
    },
    {
      "constant": false,
      "inputs": [
        {
          "name": "newOwner",
          "type": "address"
        }
      ],
      "name": "transferOwnership",
      "outputs": [],
      "payable": false,
      "stateMutability": "nonpayable",
      "type": "function"
    },
    {
      "constant": true,
      "inputs": [
        {
          "name": "",
          "type": "address"
        }
      ],
      "name": "membersToContracts",
      "outputs": [
        {
          "name": "",
          "type": "address"
        }
      ],
      "payable": false,
      "stateMutability": "view",
      "type": "function"
    },
    {
      "constant": true,
      "inputs": [
        {
          "name": "",
          "type": "address"
        }
      ],
      "name": "factories",
      "outputs": [
        {
          "name": "",
          "type": "bool"
        }
      ],
      "payable": false,
      "stateMutability": "view",
      "type": "function"
    },
    {
      "payable": false,
      "stateMutability": "nonpayable",
      "type": "fallback"
    },
    {
      "anonymous": false,
      "inputs": [
        {
          "indexed": false,
          "name": "_factory",
          "type": "address"
        }
      ],
      "name": "FactoryAdded",
      "type": "event"
    },
    {
      "anonymous": false,
      "inputs": [
        {
          "indexed": false,
          "name": "_factory",
          "type": "address"
        }
      ],
      "name": "FactoryRemoved",
      "type": "event"
    },
    {
      "anonymous": false,
      "inputs": [
        {
          "indexed": true,
          "name": "previousOwner",
          "type": "address"
        },
        {
          "indexed": true,
          "name": "newOwner",
          "type": "address"
        }
      ],
      "name": "OwnershipTransferred",
      "type": "event"
    },
    {
      "constant": false,
      "inputs": [
        {
          "name": "_factory",
          "type": "address"
        }
      ],
      "name": "addFactory",
      "outputs": [],
      "payable": false,
      "stateMutability": "nonpayable",
      "type": "function"
    },
    {
      "constant": false,
      "inputs": [
        {
          "name": "_factory",
          "type": "address"
        }
      ],
      "name": "removeFactory",
      "outputs": [],
      "payable": false,
      "stateMutability": "nonpayable",
      "type": "function"
    },
    {
      "constant": false,
      "inputs": [
        {
          "name": "_contract",
          "type": "address"
        },
        {
          "name": "_account",
          "type": "address"
        }
      ],
      "name": "setInitialOwnerInFoundation",
      "outputs": [],
      "payable": false,
      "stateMutability": "nonpayable",
      "type": "function"
    },
    {
      "constant": false,
      "inputs": [
        {
          "name": "_contract",
          "type": "address"
        },
        {
          "name": "_newAccount",
          "type": "address"
        }
      ],
      "name": "transferOwnershipInFoundation",
      "outputs": [],
      "payable": false,
      "stateMutability": "nonpayable",
      "type": "function"
    },
    {
      "constant": false,
      "inputs": [],
      "name": "renounceOwnershipInFoundation",
      "outputs": [
        {
          "name": "success",
          "type": "bool"
        }
      ],
      "payable": false,
      "stateMutability": "nonpayable",
      "type": "function"
    },
    {
      "constant": false,
      "inputs": [
        {
          "name": "_member",
          "type": "address"
        }
      ],
      "name": "addMember",
      "outputs": [],
      "payable": false,
      "stateMutability": "nonpayable",
      "type": "function"
    },
    {
      "constant": false,
      "inputs": [
        {
          "name": "_member",
          "type": "address"
        }
      ],
      "name": "removeMember",
      "outputs": [],
      "payable": false,
      "stateMutability": "nonpayable",
      "type": "function"
    },
    {
      "constant": true,
      "inputs": [],
      "name": "getContractsIndex",
      "outputs": [
        {
          "name": "",
          "type": "address[]"
        }
      ],
      "payable": false,
      "stateMutability": "view",
      "type": "function"
    }
  ],
  "bytecode": "0x6080604081905260008054600160a060020a0319163317808255600160a060020a0316917f8be0079c531659141344cd1fd0a4f28419497f9722a3daafe3b4186f6b6457e0908290a3610d06806100576000396000f3006080604052600436106100f05763ffffffff7c01000000000000000000000000000000000000000000000000000000006000350416630b1ca49a81146101025780630caab98e1461012557806329ce1ec5146101655780632ba06e6714610186578063400533e1146101a75780634b37c73f146101c8578063715018a6146101e95780638da5cb5b146101fe5780638f2691cc146102135780638f32d59b1461023c5780639cb2feb214610251578063ca6d56dc14610278578063d5c81a0514610299578063f2fde38b146102c0578063f3c67f48146102e1578063f3d93e8814610302578063fab5268914610367575b3480156100fc57600080fd5b50600080fd5b34801561010e57600080fd5b50610123600160a060020a0360043516610388565b005b34801561013157600080fd5b50610149600160a060020a03600435166024356104f9565b60408051600160a060020a039092168252519081900360200190f35b34801561017157600080fd5b50610123600160a060020a0360043516610530565b34801561019257600080fd5b50610149600160a060020a036004351661059f565b3480156101b357600080fd5b50610149600160a060020a03600435166105ba565b3480156101d457600080fd5b50610123600160a060020a03600435166105d5565b3480156101f557600080fd5b50610123610640565b34801561020a57600080fd5b5061014961069d565b34801561021f57600080fd5b506102286106ad565b604080519115158252519081900360200190f35b34801561024857600080fd5b5061022861070f565b34801561025d57600080fd5b50610123600160a060020a0360043581169060243516610720565b34801561028457600080fd5b50610123600160a060020a0360043516610830565b3480156102a557600080fd5b50610123600160a060020a036004358116906024351661099a565b3480156102cc57600080fd5b50610123600160a060020a0360043516610b6f565b3480156102ed57600080fd5b50610149600160a060020a0360043516610b8e565b34801561030e57600080fd5b50610317610ba9565b60408051602080825283518183015283519192839290830191858101910280838360005b8381101561035357818101518382015260200161033b565b505050509050019250505060405180910390f35b34801561037357600080fd5b50610228600160a060020a0360043516610c1e565b33600090815260026020526040902054600160a060020a031615156103f7576040805160e560020a62461bcd02815260206004820152601360248201527f596f75206f776e206e6f20636f6e747261637400000000000000000000000000604482015290519081900360640190fd5b33600090815260026020908152604080832054600160a060020a0385811685526005909352922054811691161461049e576040805160e560020a62461bcd02815260206004820152602660248201527f41646472657373206973206e6f74206d656d626572206f66207468697320636f60448201527f6e74726163740000000000000000000000000000000000000000000000000000606482015290519081900360840190fd5b600160a060020a0390811660008181526005602090815260408083208054600160a060020a03199081169091553384526002835281842054909516835260068252822080546001810182559083529120018054909216179055565b60066020528160005260406000208181548110151561051457fe5b600091825260209091200154600160a060020a03169150829050565b61053861070f565b151561054357600080fd5b600160a060020a038116600081815260016020818152604092839020805460ff1916909217909155815192835290517f6fdc0147105e43e21da80a75b42d0fd464060d5e1a34b0cefbf0b4ccfc2e36a19281900390910190a150565b600360205260009081526040902054600160a060020a031681565b600260205260009081526040902054600160a060020a031681565b6105dd61070f565b15156105e857600080fd5b600160a060020a038116600081815260016020908152604091829020805460ff19169055815192835290517fafa2737b2090fa39c66b7348625f0c03726240f724defbc6216d679506f944419281900390910190a150565b61064861070f565b151561065357600080fd5b60008054604051600160a060020a03909116907f8be0079c531659141344cd1fd0a4f28419497f9722a3daafe3b4186f6b6457e0908390a360008054600160a060020a0319169055565b600054600160a060020a03165b90565b3360009081526006602052604081206106c69082610ca3565b503360008181526003602081815260408084208054600160a060020a03168552600283529084208054600160a060020a0319908116909155949093525280549091169055600190565b600054600160a060020a0316331490565b33600090815260026020526040902054600160a060020a0383811691161480156107635750600160a060020a038281166000908152600360205260409020541633145b15156107b9576040805160e560020a62461bcd02815260206004820152601560248201527f596f7520617265206e6f7420746865206f776e65720000000000000000000000604482015290519081900360640190fd5b3360009081526002602081815260408084208054600160a060020a03199081169091556005808452828620805483169055600160a060020a03968716808752948452828620805498909716978216881790965594825280842080548616871790559483526003905292902080549091169091179055565b33600090815260026020526040902054600160a060020a0316151561089f576040805160e560020a62461bcd02815260206004820152601360248201527f596f75206f776e206e6f20636f6e747261637400000000000000000000000000604482015290519081900360640190fd5b600160a060020a038181166000908152600560205260409020541615610935576040805160e560020a62461bcd02815260206004820152602760248201527f4164647265737320697320616c7265616479206d656d626572206f662061206360448201527f6f6e747261637400000000000000000000000000000000000000000000000000606482015290519081900360840190fd5b3360009081526002602090815260408083208054600160a060020a03958616808652600585528386208054928816600160a060020a03199384161790559154909516845260068352908320805460018101825590845291909220018054909216179055565b3360009081526001602052604090205460ff161515610a03576040805160e560020a62461bcd02815260206004820152601560248201527f596f7520617265206e6f74206120666163746f72790000000000000000000000604482015290519081900360640190fd5b600160a060020a038281166000908152600360205260409020541615610a73576040805160e560020a62461bcd02815260206004820152601a60248201527f436f6e747261637420616c726561647920686173206f776e6572000000000000604482015290519081900360640190fd5b600160a060020a038181166000908152600260205260409020541615610ae3576040805160e560020a62461bcd02815260206004820152601c60248201527f4163636f756e7420616c72656164792068617320636f6e747261637400000000604482015290519081900360640190fd5b600160a060020a039182166000818152600360209081526040808320805496909516600160a060020a0319968716811790955560048054600181019091557f8a35acfbc15ff81a39ae7d344fd709f28e8600b4aa8c65c6b64bfe7fe36bd19b01805487168517905593825260028152838220805486168417905560059052919091208054909216179055565b610b7761070f565b1515610b8257600080fd5b610b8b81610c33565b50565b600560205260009081526040902054600160a060020a031681565b6060610bb361070f565b1515610bbe57600080fd5b6004805480602002602001604051908101604052809291908181526020018280548015610c1457602002820191906000526020600020905b8154600160a060020a03168152600190910190602001808311610bf6575b5050505050905090565b60016020526000908152604090205460ff1681565b600160a060020a0381161515610c4857600080fd5b60008054604051600160a060020a03808516939216917f8be0079c531659141344cd1fd0a4f28419497f9722a3daafe3b4186f6b6457e091a360008054600160a060020a031916600160a060020a0392909216919091179055565b5080546000825590600052602060002090810190610b8b91906106aa91905b80821115610cd65760008155600101610cc2565b50905600a165627a7a723058200b8b1986e3a99af61766b03be1dc56fae22428e077f8230f0981a9bfe4e5bd740029",
  "source": "pragma solidity ^0.4.24;\n\nimport \"./ownership/Ownable.sol\";\n\n/**\n * @title Foundation contract.\n * @author Talao, Polynomial.\n */\ncontract Foundation is Ownable {\n\n    // Registered foundation factories.\n    mapping(address => bool) public factories;\n\n    // Owners (EOA) to contract addresses relationships.\n    mapping(address => address) public ownersToContracts;\n\n    // Contract addresses to owners relationships.\n    mapping(address => address) public contractsToOwners;\n\n    // Index of known contract addresses.\n    address[] private contractsIndex;\n\n    // Members (EOA) to contract addresses relationships.\n    // In a Partnership.sol inherited contract, this allows us to create a\n    // modifier for most read functions in this contract that will authorize\n    // any account associated with an authorized Partnership contract.\n    mapping(address => address) public membersToContracts;\n\n    // Index of known members for each contract.\n    // These are EOAs that were added once, even if removed now.\n    mapping(address => address[]) public contractsToKnownMembersIndexes;\n\n    // Events for factories.\n    event FactoryAdded(address _factory);\n    event FactoryRemoved(address _factory);\n\n    /**\n     * @dev Add a factory.\n     */\n    function addFactory(address _factory) external onlyOwner {\n        factories[_factory] = true;\n        emit FactoryAdded(_factory);\n    }\n\n    /**\n     * @dev Remove a factory.\n     */\n    function removeFactory(address _factory) external onlyOwner {\n        factories[_factory] = false;\n        emit FactoryRemoved(_factory);\n    }\n\n    /**\n     * @dev Modifier for factories.\n     */\n    modifier onlyFactory() {\n        require(\n            factories[msg.sender],\n            'You are not a factory'\n        );\n        _;\n    }\n\n    /**\n     * @dev Set initial owner of a contract.\n     */\n    function setInitialOwnerInFoundation(\n        address _contract,\n        address _account\n    )\n        external\n        onlyFactory\n    {\n        require(\n            contractsToOwners[_contract] == address(0),\n            'Contract already has owner'\n        );\n        require(\n            ownersToContracts[_account] == address(0),\n            'Account already has contract'\n        );\n        contractsToOwners[_contract] = _account;\n        contractsIndex.push(_contract);\n        ownersToContracts[_account] = _contract;\n        membersToContracts[_account] = _contract;\n    }\n\n    /**\n     * @dev Transfer a contract to another account.\n     */\n    function transferOwnershipInFoundation(\n        address _contract,\n        address _newAccount\n    )\n        external\n    {\n        require(\n            (\n                ownersToContracts[msg.sender] == _contract &&\n                contractsToOwners[_contract] == msg.sender\n            ),\n            'You are not the owner'\n        );\n        ownersToContracts[msg.sender] = address(0);\n        membersToContracts[msg.sender] = address(0);\n        ownersToContracts[_newAccount] = _contract;\n        membersToContracts[_newAccount] = _contract;\n        contractsToOwners[_contract] = _newAccount;\n        // Remark: we do not update the contracts members.\n        // It's the new owner's responsability to remove members, if needed.\n    }\n\n    /**\n     * @dev Allows the current owner to relinquish control of the contract.\n     * This is called through the contract.\n     */\n    function renounceOwnershipInFoundation() external returns (bool success) {\n        // Remove members.\n        delete(contractsToKnownMembersIndexes[msg.sender]);\n        // Free the EOA, so he can become owner of a new contract.\n        delete(ownersToContracts[contractsToOwners[msg.sender]]);\n        // Assign the contract to no one.\n        delete(contractsToOwners[msg.sender]);\n        // Return.\n        success = true;\n    }\n\n    /**\n     * @dev Add a member EOA to a contract.\n     */\n    function addMember(address _member) external {\n        require(\n            ownersToContracts[msg.sender] != address(0),\n            'You own no contract'\n        );\n        require(\n            membersToContracts[_member] == address(0),\n            'Address is already member of a contract'\n        );\n        membersToContracts[_member] = ownersToContracts[msg.sender];\n        contractsToKnownMembersIndexes[ownersToContracts[msg.sender]].push(_member);\n    }\n\n    /**\n     * @dev Remove a member EOA to a contract.\n     */\n    function removeMember(address _member) external {\n        require(\n            ownersToContracts[msg.sender] != address(0),\n            'You own no contract'\n        );\n        require(\n            membersToContracts[_member] == ownersToContracts[msg.sender],\n            'Address is not member of this contract'\n        );\n        membersToContracts[_member] = address(0);\n        contractsToKnownMembersIndexes[ownersToContracts[msg.sender]].push(_member);\n    }\n\n    /**\n     * @dev Getter for contractsIndex.\n     * The automatic getter can not return array.\n     */\n    function getContractsIndex()\n        onlyOwner\n        external\n        view\n        returns (address[])\n    {\n        return contractsIndex;\n    }\n\n    /**\n     * @dev Prevents accidental sending of ether.\n     */\n    function() public {\n        revert();\n    }\n}\n",
  "sourcePath": "/home/guix/talao/talao-contracts/contracts/Foundation.sol",
  "compiler": {
    "name": "solc",
    "version": "0.4.25+commit.59dbf8f1.Emscripten.clang"
  },
  "schemaVersion": "2.0.2",
  "updated_at": "2019-01-29T16:22:43.350Z"
}