{
  "contractName": "Workspace",
  "abi": [
    {
      "constant": true,
      "inputs": [],
      "name": "isActiveIdentity",
      "outputs": [
        {
          "name": "",
          "type": "bool"
        }
      ],
      "payable": false,
      "stateMutability": "view",
      "type": "function"
    },
    {
      "constant": false,
      "inputs": [
        {
          "name": "_hisSymetricKey",
          "type": "bytes"
        }
      ],
      "name": "_authorizePartnership",
      "outputs": [],
      "payable": false,
      "stateMutability": "nonpayable",
      "type": "function"
    },
    {
      "constant": false,
      "inputs": [
        {
          "name": "_hisContract",
          "type": "address"
        },
        {
          "name": "_ourSymetricKey",
          "type": "bytes"
        }
      ],
      "name": "authorizePartnership",
      "outputs": [],
      "payable": false,
      "stateMutability": "nonpayable",
      "type": "function"
    },
    {
      "constant": true,
      "inputs": [
        {
          "name": "_key",
          "type": "bytes32"
        }
      ],
      "name": "getKey",
      "outputs": [
        {
          "name": "purposes",
          "type": "uint256[]"
        },
        {
          "name": "keyType",
          "type": "uint256"
        },
        {
          "name": "key",
          "type": "bytes32"
        }
      ],
      "payable": false,
      "stateMutability": "view",
      "type": "function"
    },
    {
      "constant": true,
      "inputs": [
        {
          "name": "_hisContract",
          "type": "address"
        }
      ],
      "name": "getPartnership",
      "outputs": [
        {
          "name": "",
          "type": "address"
        },
        {
          "name": "",
          "type": "uint256"
        },
        {
          "name": "",
          "type": "uint256"
        },
        {
          "name": "",
          "type": "uint40"
        },
        {
          "name": "",
          "type": "bytes"
        }
      ],
      "payable": false,
      "stateMutability": "view",
      "type": "function"
    },
    {
      "constant": false,
      "inputs": [
        {
          "name": "_docType",
          "type": "uint16"
        },
        {
          "name": "_docTypeVersion",
          "type": "uint16"
        },
        {
          "name": "_fileChecksum",
          "type": "bytes32"
        },
        {
          "name": "_fileLocationEngine",
          "type": "uint16"
        },
        {
          "name": "_fileLocationHash",
          "type": "bytes"
        },
        {
          "name": "_encrypted",
          "type": "bool"
        },
        {
          "name": "_related",
          "type": "uint16"
        }
      ],
      "name": "issueCertificate",
      "outputs": [
        {
          "name": "",
          "type": "uint256"
        }
      ],
      "payable": false,
      "stateMutability": "nonpayable",
      "type": "function"
    },
    {
      "constant": false,
      "inputs": [
        {
          "name": "_key",
          "type": "bytes32"
        },
        {
          "name": "_purpose",
          "type": "uint256"
        },
        {
          "name": "_type",
          "type": "uint256"
        }
      ],
      "name": "addKey",
      "outputs": [
        {
          "name": "success",
          "type": "bool"
        }
      ],
      "payable": false,
      "stateMutability": "nonpayable",
      "type": "function"
    },
    {
      "constant": false,
      "inputs": [
        {
          "name": "_topic",
          "type": "uint256[]"
        },
        {
          "name": "_issuer",
          "type": "address[]"
        },
        {
          "name": "_signature",
          "type": "bytes"
        },
        {
          "name": "_data",
          "type": "bytes"
        },
        {
          "name": "_offsets",
          "type": "uint256[]"
        }
      ],
      "name": "addClaims",
      "outputs": [],
      "payable": false,
      "stateMutability": "nonpayable",
      "type": "function"
    },
    {
      "constant": true,
      "inputs": [
        {
          "name": "_purpose",
          "type": "uint256"
        }
      ],
      "name": "hasIdentityPurpose",
      "outputs": [
        {
          "name": "",
          "type": "bool"
        }
      ],
      "payable": false,
      "stateMutability": "view",
      "type": "function"
    },
    {
      "constant": true,
      "inputs": [
        {
          "name": "_id",
          "type": "uint256"
        }
      ],
      "name": "getDocument",
      "outputs": [
        {
          "name": "",
          "type": "uint16"
        },
        {
          "name": "",
          "type": "uint16"
        },
        {
          "name": "",
          "type": "address"
        },
        {
          "name": "",
          "type": "bytes32"
        },
        {
          "name": "",
          "type": "uint16"
        },
        {
          "name": "",
          "type": "bytes"
        },
        {
          "name": "",
          "type": "bool"
        },
        {
          "name": "",
          "type": "uint16"
        }
      ],
      "payable": false,
      "stateMutability": "view",
      "type": "function"
    },
    {
      "constant": false,
      "inputs": [
        {
          "name": "_key",
          "type": "bytes32"
        },
        {
          "name": "_purpose",
          "type": "uint256"
        }
      ],
      "name": "addPurpose",
      "outputs": [
        {
          "name": "",
          "type": "bool"
        }
      ],
      "payable": false,
      "stateMutability": "nonpayable",
      "type": "function"
    },
    {
      "constant": false,
      "inputs": [
        {
          "name": "_id",
          "type": "uint256"
        },
        {
          "name": "_docType",
          "type": "uint16"
        },
        {
          "name": "_docTypeVersion",
          "type": "uint16"
        },
        {
          "name": "_fileChecksum",
          "type": "bytes32"
        },
        {
          "name": "_fileLocationEngine",
          "type": "uint16"
        },
        {
          "name": "_fileLocationHash",
          "type": "bytes"
        },
        {
          "name": "_encrypted",
          "type": "bool"
        }
      ],
      "name": "updateDocument",
      "outputs": [
        {
          "name": "",
          "type": "uint256"
        }
      ],
      "payable": false,
      "stateMutability": "nonpayable",
      "type": "function"
    },
    {
      "constant": true,
      "inputs": [],
      "name": "identityInformation",
      "outputs": [
        {
          "name": "creator",
          "type": "address"
        },
        {
          "name": "category",
          "type": "uint16"
        },
        {
          "name": "asymetricEncryptionAlgorithm",
          "type": "uint16"
        },
        {
          "name": "symetricEncryptionAlgorithm",
          "type": "uint16"
        },
        {
          "name": "asymetricEncryptionPublicKey",
          "type": "bytes"
        },
        {
          "name": "symetricEncryptionEncryptedKey",
          "type": "bytes"
        },
        {
          "name": "encryptedSecret",
          "type": "bytes"
        }
      ],
      "payable": false,
      "stateMutability": "view",
      "type": "function"
    },
    {
      "constant": false,
      "inputs": [
        {
          "name": "_claimId",
          "type": "bytes32"
        }
      ],
      "name": "removeClaim",
      "outputs": [
        {
          "name": "success",
          "type": "bool"
        }
      ],
      "payable": false,
      "stateMutability": "nonpayable",
      "type": "function"
    },
    {
      "constant": false,
      "inputs": [
        {
          "name": "_key",
          "type": "bytes32"
        },
        {
          "name": "_purpose",
          "type": "uint256"
        }
      ],
      "name": "removeKey",
      "outputs": [
        {
          "name": "success",
          "type": "bool"
        }
      ],
      "payable": false,
      "stateMutability": "nonpayable",
      "type": "function"
    },
    {
      "constant": true,
      "inputs": [],
      "name": "isActiveIdentityOwner",
      "outputs": [
        {
          "name": "",
          "type": "bool"
        }
      ],
      "payable": false,
      "stateMutability": "view",
      "type": "function"
    },
    {
      "constant": false,
      "inputs": [
        {
          "name": "_address",
          "type": "address"
        }
      ],
      "name": "identityboxBlacklist",
      "outputs": [],
      "payable": false,
      "stateMutability": "nonpayable",
      "type": "function"
    },
    {
      "constant": false,
      "inputs": [
        {
          "name": "_hisSymetricKey",
          "type": "bytes"
        }
      ],
      "name": "_requestPartnership",
      "outputs": [
        {
          "name": "success",
          "type": "bool"
        }
      ],
      "payable": false,
      "stateMutability": "nonpayable",
      "type": "function"
    },
    {
      "constant": false,
      "inputs": [
        {
          "name": "_hisContract",
          "type": "address"
        }
      ],
      "name": "rejectPartnership",
      "outputs": [],
      "payable": false,
      "stateMutability": "nonpayable",
      "type": "function"
    },
    {
      "constant": true,
      "inputs": [],
      "name": "getKnownPartnershipsContracts",
      "outputs": [
        {
          "name": "",
          "type": "address[]"
        }
      ],
      "payable": false,
      "stateMutability": "view",
      "type": "function"
    },
    {
      "constant": false,
      "inputs": [
        {
          "name": "_hisContract",
          "type": "address"
        },
        {
          "name": "_ourSymetricKey",
          "type": "bytes"
        }
      ],
      "name": "requestPartnership",
      "outputs": [],
      "payable": false,
      "stateMutability": "nonpayable",
      "type": "function"
    },
    {
      "constant": false,
      "inputs": [
        {
          "name": "_id",
          "type": "uint256"
        },
        {
          "name": "_approve",
          "type": "bool"
        }
      ],
      "name": "approve",
      "outputs": [
        {
          "name": "success",
          "type": "bool"
        }
      ],
      "payable": false,
      "stateMutability": "nonpayable",
      "type": "function"
    },
    {
      "constant": true,
      "inputs": [],
      "name": "partnershipsNumber",
      "outputs": [
        {
          "name": "",
          "type": "uint256"
        }
      ],
      "payable": false,
      "stateMutability": "view",
      "type": "function"
    },
    {
      "constant": true,
      "inputs": [
        {
          "name": "_topic",
          "type": "uint256"
        }
      ],
      "name": "getClaimIdsByTopic",
      "outputs": [
        {
          "name": "claimIds",
          "type": "bytes32[]"
        }
      ],
      "payable": false,
      "stateMutability": "view",
      "type": "function"
    },
    {
      "constant": true,
      "inputs": [],
      "name": "getMyPartnershipStatus",
      "outputs": [
        {
          "name": "authorization",
          "type": "uint256"
        }
      ],
      "payable": false,
      "stateMutability": "view",
      "type": "function"
    },
    {
      "constant": false,
      "inputs": [],
      "name": "_removePartnership",
      "outputs": [
        {
          "name": "success",
          "type": "bool"
        }
      ],
      "payable": false,
      "stateMutability": "nonpayable",
      "type": "function"
    },
    {
      "constant": true,
      "inputs": [
        {
          "name": "_purpose",
          "type": "uint256"
        }
      ],
      "name": "getKeysByPurpose",
      "outputs": [
        {
          "name": "_keys",
          "type": "bytes32[]"
        }
      ],
      "payable": false,
      "stateMutability": "view",
      "type": "function"
    },
    {
      "constant": false,
      "inputs": [
        {
          "name": "_privateEmail",
          "type": "bytes"
        },
        {
          "name": "_mobile",
          "type": "bytes"
        }
      ],
      "name": "setPrivateProfile",
      "outputs": [],
      "payable": false,
      "stateMutability": "nonpayable",
      "type": "function"
    },
    {
      "constant": false,
      "inputs": [
        {
          "name": "_id",
          "type": "uint256"
        }
      ],
      "name": "deleteDocument",
      "outputs": [],
      "payable": false,
      "stateMutability": "nonpayable",
      "type": "function"
    },
    {
      "constant": false,
      "inputs": [
        {
          "name": "_topic",
          "type": "uint256[]"
        },
        {
          "name": "_data",
          "type": "bytes"
        },
        {
          "name": "_offsets",
          "type": "uint256[]"
        }
      ],
      "name": "updateSelfClaims",
      "outputs": [],
      "payable": false,
      "stateMutability": "nonpayable",
      "type": "function"
    },
    {
      "constant": false,
      "inputs": [
        {
          "name": "_category",
          "type": "uint256"
        },
        {
          "name": "_text",
          "type": "bytes"
        }
      ],
      "name": "identityboxSendtext",
      "outputs": [],
      "payable": false,
      "stateMutability": "nonpayable",
      "type": "function"
    },
    {
      "constant": false,
      "inputs": [
        {
          "name": "_hisContract",
          "type": "address"
        }
      ],
      "name": "removePartnership",
      "outputs": [],
      "payable": false,
      "stateMutability": "nonpayable",
      "type": "function"
    },
    {
      "constant": true,
      "inputs": [],
      "name": "getPrivateProfile",
      "outputs": [
        {
          "name": "",
          "type": "bytes"
        },
        {
          "name": "",
          "type": "bytes"
        }
      ],
      "payable": false,
      "stateMutability": "view",
      "type": "function"
    },
    {
      "constant": true,
      "inputs": [],
      "name": "isReader",
      "outputs": [
        {
          "name": "",
          "type": "bool"
        }
      ],
      "payable": false,
      "stateMutability": "view",
      "type": "function"
    },
    {
      "constant": false,
      "inputs": [
        {
          "name": "_topic",
          "type": "uint256"
        },
        {
          "name": "_scheme",
          "type": "uint256"
        },
        {
          "name": "_issuer",
          "type": "address"
        },
        {
          "name": "_signature",
          "type": "bytes"
        },
        {
          "name": "_data",
          "type": "bytes"
        },
        {
          "name": "_uri",
          "type": "string"
        }
      ],
      "name": "addClaim",
      "outputs": [
        {
          "name": "claimRequestId",
          "type": "bytes32"
        }
      ],
      "payable": false,
      "stateMutability": "nonpayable",
      "type": "function"
    },
    {
      "constant": false,
      "inputs": [
        {
          "name": "_docType",
          "type": "uint16"
        },
        {
          "name": "_docTypeVersion",
          "type": "uint16"
        },
        {
          "name": "_fileChecksum",
          "type": "bytes32"
        },
        {
          "name": "_fileLocationEngine",
          "type": "uint16"
        },
        {
          "name": "_fileLocationHash",
          "type": "bytes"
        },
        {
          "name": "_encrypted",
          "type": "bool"
        }
      ],
      "name": "createDocument",
      "outputs": [
        {
          "name": "",
          "type": "uint256"
        }
      ],
      "payable": false,
      "stateMutability": "nonpayable",
      "type": "function"
    },
    {
      "constant": false,
      "inputs": [
        {
          "name": "_to",
          "type": "address"
        },
        {
          "name": "_value",
          "type": "uint256"
        },
        {
          "name": "_data",
          "type": "bytes"
        }
      ],
      "name": "execute",
      "outputs": [
        {
          "name": "executionId",
          "type": "uint256"
        }
      ],
      "payable": false,
      "stateMutability": "nonpayable",
      "type": "function"
    },
    {
      "constant": false,
      "inputs": [
        {
          "name": "_id",
          "type": "uint256"
        }
      ],
      "name": "acceptCertificate",
      "outputs": [],
      "payable": false,
      "stateMutability": "nonpayable",
      "type": "function"
    },
    {
      "constant": true,
      "inputs": [],
      "name": "isPartnershipMember",
      "outputs": [
        {
          "name": "",
          "type": "bool"
        }
      ],
      "payable": false,
      "stateMutability": "view",
      "type": "function"
    },
    {
      "constant": false,
      "inputs": [
        {
          "name": "_address",
          "type": "address"
        }
      ],
      "name": "identityboxUnblacklist",
      "outputs": [],
      "payable": false,
      "stateMutability": "nonpayable",
      "type": "function"
    },
    {
      "constant": true,
      "inputs": [
        {
          "name": "_claimId",
          "type": "bytes32"
        }
      ],
      "name": "getClaim",
      "outputs": [
        {
          "name": "topic",
          "type": "uint256"
        },
        {
          "name": "scheme",
          "type": "uint256"
        },
        {
          "name": "issuer",
          "type": "address"
        },
        {
          "name": "signature",
          "type": "bytes"
        },
        {
          "name": "data",
          "type": "bytes"
        },
        {
          "name": "uri",
          "type": "string"
        }
      ],
      "payable": false,
      "stateMutability": "view",
      "type": "function"
    },
    {
      "constant": true,
      "inputs": [],
      "name": "isMember",
      "outputs": [
        {
          "name": "",
          "type": "bool"
        }
      ],
      "payable": false,
      "stateMutability": "view",
      "type": "function"
    },
    {
      "constant": true,
      "inputs": [
        {
          "name": "_key",
          "type": "bytes32"
        },
        {
          "name": "_purpose",
          "type": "uint256"
        }
      ],
      "name": "keyHasPurpose",
      "outputs": [
        {
          "name": "exists",
          "type": "bool"
        }
      ],
      "payable": false,
      "stateMutability": "view",
      "type": "function"
    },
    {
      "constant": true,
      "inputs": [
        {
          "name": "",
          "type": "address"
        }
      ],
      "name": "identityboxBlacklisted",
      "outputs": [
        {
          "name": "",
          "type": "bool"
        }
      ],
      "payable": false,
      "stateMutability": "view",
      "type": "function"
    },
    {
      "constant": false,
      "inputs": [
        {
          "name": "_fileType",
          "type": "uint256"
        },
        {
          "name": "_fileEngine",
          "type": "uint256"
        },
        {
          "name": "_fileHash",
          "type": "bytes"
        }
      ],
      "name": "identityboxSendfile",
      "outputs": [],
      "payable": false,
      "stateMutability": "nonpayable",
      "type": "function"
    },
    {
      "constant": true,
      "inputs": [],
      "name": "getDocuments",
      "outputs": [
        {
          "name": "",
          "type": "uint256[]"
        }
      ],
      "payable": false,
      "stateMutability": "view",
      "type": "function"
    },
    {
      "constant": true,
      "inputs": [
        {
          "name": "_key",
          "type": "bytes32"
        }
      ],
      "name": "getKeyPurposes",
      "outputs": [
        {
          "name": "purposes",
          "type": "uint256[]"
        }
      ],
      "payable": false,
      "stateMutability": "view",
      "type": "function"
    },
    {
      "constant": true,
      "inputs": [],
      "name": "token",
      "outputs": [
        {
          "name": "",
          "type": "address"
        }
      ],
      "payable": false,
      "stateMutability": "view",
      "type": "function"
    },
    {
      "inputs": [
        {
          "name": "_foundation",
          "type": "address"
        },
        {
          "name": "_token",
          "type": "address"
        },
        {
          "name": "_category",
          "type": "uint16"
        },
        {
          "name": "_asymetricEncryptionAlgorithm",
          "type": "uint16"
        },
        {
          "name": "_symetricEncryptionAlgorithm",
          "type": "uint16"
        },
        {
          "name": "_asymetricEncryptionPublicKey",
          "type": "bytes"
        },
        {
          "name": "_symetricEncryptionEncryptedKey",
          "type": "bytes"
        },
        {
          "name": "_encryptedSecret",
          "type": "bytes"
        }
      ],
      "payable": false,
      "stateMutability": "nonpayable",
      "type": "constructor"
    },
    {
      "payable": false,
      "stateMutability": "nonpayable",
      "type": "fallback"
    },
    {
      "anonymous": false,
      "inputs": [
        {
          "indexed": false,
          "name": "id",
          "type": "uint256"
        }
      ],
      "name": "DocumentAdded",
      "type": "event"
    },
    {
      "anonymous": false,
      "inputs": [
        {
          "indexed": false,
          "name": "id",
          "type": "uint256"
        }
      ],
      "name": "DocumentRemoved",
      "type": "event"
    },
    {
      "anonymous": false,
      "inputs": [
        {
          "indexed": true,
          "name": "checksum",
          "type": "bytes32"
        },
        {
          "indexed": true,
          "name": "issuer",
          "type": "address"
        },
        {
          "indexed": false,
          "name": "id",
          "type": "uint256"
        }
      ],
      "name": "CertificateIssued",
      "type": "event"
    },
    {
      "anonymous": false,
      "inputs": [
        {
          "indexed": true,
          "name": "checksum",
          "type": "bytes32"
        },
        {
          "indexed": true,
          "name": "issuer",
          "type": "address"
        },
        {
          "indexed": false,
          "name": "id",
          "type": "uint256"
        }
      ],
      "name": "CertificateAccepted",
      "type": "event"
    },
    {
      "anonymous": false,
      "inputs": [],
      "name": "PartnershipRequested",
      "type": "event"
    },
    {
      "anonymous": false,
      "inputs": [],
      "name": "PartnershipAccepted",
      "type": "event"
    },
    {
      "anonymous": false,
      "inputs": [
        {
          "indexed": true,
          "name": "sender",
          "type": "address"
        },
        {
          "indexed": true,
          "name": "category",
          "type": "uint256"
        },
        {
          "indexed": false,
          "name": "text",
          "type": "bytes"
        }
      ],
      "name": "TextReceived",
      "type": "event"
    },
    {
      "anonymous": false,
      "inputs": [
        {
          "indexed": true,
          "name": "sender",
          "type": "address"
        },
        {
          "indexed": true,
          "name": "fileType",
          "type": "uint256"
        },
        {
          "indexed": false,
          "name": "fileEngine",
          "type": "uint256"
        },
        {
          "indexed": false,
          "name": "fileHash",
          "type": "bytes"
        }
      ],
      "name": "FileReceived",
      "type": "event"
    },
    {
      "anonymous": false,
      "inputs": [
        {
          "indexed": true,
          "name": "claimRequestId",
          "type": "uint256"
        },
        {
          "indexed": true,
          "name": "topic",
          "type": "uint256"
        },
        {
          "indexed": false,
          "name": "scheme",
          "type": "uint256"
        },
        {
          "indexed": true,
          "name": "issuer",
          "type": "address"
        },
        {
          "indexed": false,
          "name": "signature",
          "type": "bytes"
        },
        {
          "indexed": false,
          "name": "data",
          "type": "bytes"
        },
        {
          "indexed": false,
          "name": "uri",
          "type": "string"
        }
      ],
      "name": "ClaimRequested",
      "type": "event"
    },
    {
      "anonymous": false,
      "inputs": [
        {
          "indexed": true,
          "name": "claimId",
          "type": "bytes32"
        },
        {
          "indexed": true,
          "name": "topic",
          "type": "uint256"
        },
        {
          "indexed": false,
          "name": "scheme",
          "type": "uint256"
        },
        {
          "indexed": true,
          "name": "issuer",
          "type": "address"
        },
        {
          "indexed": false,
          "name": "signature",
          "type": "bytes"
        },
        {
          "indexed": false,
          "name": "data",
          "type": "bytes"
        },
        {
          "indexed": false,
          "name": "uri",
          "type": "string"
        }
      ],
      "name": "ClaimAdded",
      "type": "event"
    },
    {
      "anonymous": false,
      "inputs": [
        {
          "indexed": true,
          "name": "claimId",
          "type": "bytes32"
        },
        {
          "indexed": true,
          "name": "topic",
          "type": "uint256"
        },
        {
          "indexed": false,
          "name": "scheme",
          "type": "uint256"
        },
        {
          "indexed": true,
          "name": "issuer",
          "type": "address"
        },
        {
          "indexed": false,
          "name": "signature",
          "type": "bytes"
        },
        {
          "indexed": false,
          "name": "data",
          "type": "bytes"
        },
        {
          "indexed": false,
          "name": "uri",
          "type": "string"
        }
      ],
      "name": "ClaimRemoved",
      "type": "event"
    },
    {
      "anonymous": false,
      "inputs": [
        {
          "indexed": true,
          "name": "claimId",
          "type": "bytes32"
        },
        {
          "indexed": true,
          "name": "topic",
          "type": "uint256"
        },
        {
          "indexed": false,
          "name": "scheme",
          "type": "uint256"
        },
        {
          "indexed": true,
          "name": "issuer",
          "type": "address"
        },
        {
          "indexed": false,
          "name": "signature",
          "type": "bytes"
        },
        {
          "indexed": false,
          "name": "data",
          "type": "bytes"
        },
        {
          "indexed": false,
          "name": "uri",
          "type": "string"
        }
      ],
      "name": "ClaimChanged",
      "type": "event"
    },
    {
      "anonymous": false,
      "inputs": [
        {
          "indexed": true,
          "name": "key",
          "type": "bytes32"
        },
        {
          "indexed": true,
          "name": "purpose",
          "type": "uint256"
        },
        {
          "indexed": true,
          "name": "keyType",
          "type": "uint256"
        }
      ],
      "name": "KeyAdded",
      "type": "event"
    },
    {
      "anonymous": false,
      "inputs": [
        {
          "indexed": true,
          "name": "key",
          "type": "bytes32"
        },
        {
          "indexed": true,
          "name": "purpose",
          "type": "uint256"
        },
        {
          "indexed": true,
          "name": "keyType",
          "type": "uint256"
        }
      ],
      "name": "KeyRemoved",
      "type": "event"
    },
    {
      "anonymous": false,
      "inputs": [
        {
          "indexed": true,
          "name": "executionId",
          "type": "uint256"
        },
        {
          "indexed": true,
          "name": "to",
          "type": "address"
        },
        {
          "indexed": true,
          "name": "value",
          "type": "uint256"
        },
        {
          "indexed": false,
          "name": "data",
          "type": "bytes"
        }
      ],
      "name": "ExecutionRequested",
      "type": "event"
    },
    {
      "anonymous": false,
      "inputs": [
        {
          "indexed": true,
          "name": "executionId",
          "type": "uint256"
        },
        {
          "indexed": true,
          "name": "to",
          "type": "address"
        },
        {
          "indexed": true,
          "name": "value",
          "type": "uint256"
        },
        {
          "indexed": false,
          "name": "data",
          "type": "bytes"
        }
      ],
      "name": "Executed",
      "type": "event"
    },
    {
      "anonymous": false,
      "inputs": [
        {
          "indexed": true,
          "name": "executionId",
          "type": "uint256"
        },
        {
          "indexed": false,
          "name": "approved",
          "type": "bool"
        }
      ],
      "name": "Approved",
      "type": "event"
    },
    {
      "constant": false,
      "inputs": [],
      "name": "destroyWorkspace",
      "outputs": [],
      "payable": false,
      "stateMutability": "nonpayable",
      "type": "function"
    }
  ],
  "bytecode": "0x60806040523480156200001157600080fd5b50604051620056ae380380620056ae83398101604081815282516020840151828501516060860151608087015160a088015160c089015160e08a01517f30864be5000000000000000000000000000000000000000000000000000000008a52600060048b018190529851979a969995989497939692830195918301949201928a928a928a928a928a928a928a928a928a928a928a928a928a928a928a928a928a928a928a928a928a928a928a928a9273__KeyHolderLibrary______________________926330864be59260248082019391829003018186803b158015620000f857600080fd5b505af41580156200010d573d6000803e3d6000fd5b505060068054600160a060020a0319908116600160a060020a038d811691909117909255600780548216928c1692909217909155600880543392169190911760a060020a61ffff0219167401000000000000000000000000000000000000000061ffff8b8116919091029190911760b060020a61ffff0219167601000000000000000000000000000000000000000000008a8316021760c060020a61ffff02191678010000000000000000000000000000000000000000000000009189169190910217905550508251620001e99060099060208601906200059c565b508151620001ff90600a9060208501906200059c565b5080516200021590600b9060208401906200059c565b50505050505050505087600d60006101000a815481600160a060020a030219169083600160a060020a0316021790555086600760006101000a815481600160a060020a030219169083600160a060020a0316021790555033600860000160006101000a815481600160a060020a030219169083600160a060020a0316021790555085600860000160146101000a81548161ffff021916908361ffff16021790555084600860000160166101000a81548161ffff021916908361ffff16021790555083600860000160186101000a81548161ffff021916908361ffff1602179055508260086001019080519060200190620003119291906200059c565b5081516200032790600a9060208501906200059c565b5080516200033d90600b9060208401906200059c565b50505050505050505087601160006101000a815481600160a060020a030219169083600160a060020a0316021790555086601260006101000a815481600160a060020a030219169083600160a060020a0316021790555033600860000160006101000a815481600160a060020a030219169083600160a060020a0316021790555085600860000160146101000a81548161ffff021916908361ffff16021790555084600860000160166101000a81548161ffff021916908361ffff16021790555083600860000160186101000a81548161ffff021916908361ffff1602179055508260086001019080519060200190620004399291906200059c565b5081516200044f90600a9060208501906200059c565b5080516200046590600b9060208401906200059c565b50505050505050505087601160006101000a815481600160a060020a030219169083600160a060020a0316021790555086601260006101000a815481600160a060020a030219169083600160a060020a0316021790555033600860000160006101000a815481600160a060020a030219169083600160a060020a0316021790555085600860000160146101000a81548161ffff021916908361ffff16021790555084600860000160166101000a81548161ffff021916908361ffff16021790555083600860000160186101000a81548161ffff021916908361ffff1602179055508260086001019080519060200190620005619291906200059c565b5081516200057790600a9060208501906200059c565b5080516200058d90600b9060208401906200059c565b50505050505050505062000641565b828054600181600116156101000203166002900490600052602060002090601f016020900481019282601f10620005df57805160ff19168380011785556200060f565b828001600101855582156200060f579182015b828111156200060f578251825591602001919060010190620005f2565b506200061d92915062000621565b5090565b6200063e91905b808211156200061d576000815560010162000628565b90565b61505d80620006516000396000f3006080604052600436106102375763ffffffff60e060020a600035041663018f2da18114610249578063023e16f31461027257806308524d891461029457806312aaac70146102c157806317721bdb1461033a5780631ca882e01461040f5780631d3812401461046557806321c148f01461048357806328c51e06146105c65780633f9b250a146105de578063491a0676146106bf578063494850d7146106da5780634dcc73961461071c5780634eee424a146108bb57806353d413c5146108d357806354bdbb6b146108ee5780635ad078c9146109035780635da601fd146109245780635e8c2aa61461094457806361b2e53b146109655780636b8f4613146109ca578063747442d3146109f75780637b935c2014610a1457806380e9e9e114610a2957806383c23d0614610a415780638af1d76b14610a565780639010f72614610a6b57806392afc61014610a83578063984bdb3714610a98578063a0fb149714610ac4578063a477949814610adc578063a679e9ae14610ba8578063a7d742ba14610bcc578063a8717a0d14610bed578063ae4936cb14610ce0578063b1a34e0d14610cf5578063b4d2c70b14610ddd578063b61d27f614610e1a578063c222008a14610e83578063c4e23a1c14610e9b578063c5573ec814610eb0578063c9100bcb14610ed1578063d02982cf14611011578063d202158d14611026578063ec7ed53b14611041578063edec6f2614611062578063ef2d87001461108a578063fb307b341461109f578063fc0c546a146110b7575b34801561024357600080fd5b50600080fd5b34801561025557600080fd5b5061025e6110e8565b604080519115158252519081900360200190f35b34801561027e57600080fd5b5061029260048035602481019101356111a1565b005b3480156102a057600080fd5b5061029260048035600160a060020a03169060248035908101910135611287565b3480156102cd57600080fd5b506102d96004356115ba565b60408051602080820185905291810183905260608082528551908201528451909182916080830191878101910280838360005b8381101561032457818101518382015260200161030c565b5050505090500194505050505060405180910390f35b34801561034657600080fd5b5061035b600160a060020a03600435166116d3565b6040518086600160a060020a0316600160a060020a031681526020018581526020018481526020018364ffffffffff1664ffffffffff16815260200180602001828103825283818151815260200191508051906020019080838360005b838110156103d05781810151838201526020016103b8565b50505050905090810190601f1680156103fd5780820380516001836020036101000a031916815260200191505b50965050505050505060405180910390f35b34801561041b57600080fd5b5061045361ffff6004803582169160248035821692604435926064358116926084359081019201359060a43515159060c43516611a4d565b60408051918252519081900360200190f35b34801561047157600080fd5b5061025e600435602435604435611d1a565b34801561048f57600080fd5b506040805160206004803580820135838102808601850190965280855261029295369593946024949385019291829185019084908082843750506040805187358901803560208181028481018201909552818452989b9a99890198929750908201955093508392508501908490808284375050604080516020601f89358b018035918201839004830284018301909452808352979a99988101979196509182019450925082915084018382808284375050604080516020601f89358b018035918201839004830284018301909452808352979a999881019791965091820194509250829150840183828082843750506040805187358901803560208181028481018201909552818452989b9a998901989297509082019550935083925085019084908082843750949750611dd09650505050505050565b3480156105d257600080fd5b5061025e600435611fdf565b3480156105ea57600080fd5b506105f6600435612093565b6040805161ffff808b168252898116602080840191909152600160a060020a038a169383019390935260608201889052868116608083015284151560c0830152831660e082015261010060a0820181815286519183019190915285519192909161012084019187019080838360005b8381101561067d578181015183820152602001610665565b50505050905090810190601f1680156106aa5780820380516001836020036101000a031916815260200191505b50995050505050505050505060405180910390f35b3480156106cb57600080fd5b5061025e600435602435612291565b3480156106e657600080fd5b5061045360048035906024803561ffff9081169260443582169260643592608435169160a43591820191013560c435151561233f565b34801561072857600080fd5b50610731612401565b6040518088600160a060020a0316600160a060020a031681526020018761ffff1661ffff1681526020018661ffff1661ffff1681526020018561ffff1661ffff168152602001806020018060200180602001848103845287818151815260200191508051906020019080838360005b838110156107b85781810151838201526020016107a0565b50505050905090810190601f1680156107e55780820380516001836020036101000a031916815260200191505b50848103835286518152865160209182019188019080838360005b83811015610818578181015183820152602001610800565b50505050905090810190601f1680156108455780820380516001836020036101000a031916815260200191505b50848103825285518152855160209182019187019080838360005b83811015610878578181015183820152602001610860565b50505050905090810190601f1680156108a55780820380516001836020036101000a031916815260200191505b509a505050505050505050505060405180910390f35b3480156108c757600080fd5b5061025e600435612621565b3480156108df57600080fd5b5061025e6004356024356126cd565b3480156108fa57600080fd5b5061025e612748565b34801561090f57600080fd5b50610292600160a060020a03600435166127c9565b34801561093057600080fd5b5061025e600480356024810191013561283e565b34801561095057600080fd5b50610292600160a060020a03600435166129d3565b34801561097157600080fd5b5061097a612ac5565b60408051602080825283518183015283519192839290830191858101910280838360005b838110156109b657818101518382015260200161099e565b505050509050019250505060405180910390f35b3480156109d657600080fd5b5061029260048035600160a060020a03169060248035908101910135612b79565b348015610a0357600080fd5b5061025e6004356024351515612eeb565b348015610a2057600080fd5b50610453612f67565b348015610a3557600080fd5b5061097a600435612f6d565b348015610a4d57600080fd5b50610453612fd0565b348015610a6257600080fd5b5061025e613112565b348015610a7757600080fd5b5061097a60043561319d565b348015610a8f57600080fd5b5061029261328b565b348015610aa457600080fd5b506102926024600480358281019290820135918135918201910135613370565b348015610ad057600080fd5b506102926004356133d9565b348015610ae857600080fd5b50604080516020600480358082013583810280860185019096528085526102929536959394602494938501929182918501908490808284375050604080516020601f89358b018035918201839004830284018301909452808352979a999881019791965091820194509250829150840183828082843750506040805187358901803560208181028481018201909552818452989b9a9989019892975090820195509350839250850190849080828437509497506134369650505050505050565b348015610bb457600080fd5b506102926004803590602480359081019101356135a1565b348015610bd857600080fd5b50610292600160a060020a0360043516613669565b348015610bf957600080fd5b50610c02613af5565b604051808060200180602001838103835285818151815260200191508051906020019080838360005b83811015610c43578181015183820152602001610c2b565b50505050905090810190601f168015610c705780820380516001836020036101000a031916815260200191505b50838103825284518152845160209182019186019080838360005b83811015610ca3578181015183820152602001610c8b565b50505050905090810190601f168015610cd05780820380516001836020036101000a031916815260200191505b5094505050505060405180910390f35b348015610cec57600080fd5b5061025e613c6c565b348015610d0157600080fd5b50604080516020601f606435600481810135928301849004840285018401909552818452610453948035946024803595600160a060020a0360443516953695608494930191819084018382808284375050604080516020601f89358b018035918201839004830284018301909452808352979a99988101979196509182019450925082915084018382808284375050604080516020601f89358b018035918201839004830284018301909452808352979a999881019791965091820194509250829150840183828082843750949750613e909650505050505050565b348015610de957600080fd5b5061045361ffff600480358216916024803582169260443592606435169160843590810191013560a4351515614087565b348015610e2657600080fd5b50604080516020600460443581810135601f8101849004840285018401909552848452610453948235600160a060020a031694602480359536959460649492019190819084018382808284375094975061413f9650505050505050565b348015610e8f57600080fd5b50610292600435614220565b348015610ea757600080fd5b5061025e6143ab565b348015610ebc57600080fd5b50610292600160a060020a036004351661445c565b348015610edd57600080fd5b50610ee96004356144ce565b6040518087815260200186815260200185600160a060020a0316600160a060020a03168152602001806020018060200180602001848103845287818151815260200191508051906020019080838360005b83811015610f52578181015183820152602001610f3a565b50505050905090810190601f168015610f7f5780820380516001836020036101000a031916815260200191505b50848103835286518152865160209182019188019080838360005b83811015610fb2578181015183820152602001610f9a565b50505050905090810190601f168015610fdf5780820380516001836020036101000a031916815260200191505b50848103825285518152855160209182019187019080838360008381101561067d578181015183820152602001610665565b34801561101d57600080fd5b5061025e614683565b34801561103257600080fd5b5061025e600435602435614712565b34801561104d57600080fd5b5061025e600160a060020a036004351661478d565b34801561106e57600080fd5b50610292600480359060248035916044359182019101356147a2565b34801561109657600080fd5b5061097a614873565b3480156110ab57600080fd5b5061097a600435614917565b3480156110c357600080fd5b506110cc61498a565b60408051600160a060020a039092168252519081900360200190f35b600754600090600160a060020a0316626d96e0611103614999565b61110b614999565b6040518363ffffffff1660e060020a0281526004018083600160a060020a0316600160a060020a0316815260200182600160a060020a0316600160a060020a0316815260200192505050602060405180830381600087803b15801561116f57600080fd5b505af1158015611183573d6000803e3d6000fd5b505050506040513d602081101561119957600080fd5b505190505b90565b6001336000908152600e602052604090205460ff1660048111156111c157fe5b1461123c576040805160e560020a62461bcd02815260206004820152602260248201527f596f752068617665206e6f20617574686f72697a656420706172746e6572736860448201527f6970000000000000000000000000000000000000000000000000000000000000606482015290519081900360840190fd5b336000908152600e60205260409020611259906001018383614e49565b506040517f02d5877e69cb2f3f36c2aaf0a7b86a3158a4181fe0226d4fe1e4eb006774f43f90600090a15050565b6000600161129481611fdf565b15156112d8576040805160e560020a62461bcd02815260206004820152600d6024820152600080516020615012833981519152604482015290519081900360640190fd5b6002600160a060020a0386166000908152600e602052604090205460ff16600481111561130157fe5b14611356576040805160e560020a62461bcd02815260206004820152601b60248201527f506172746e657273686970206d7573742062652050656e64696e670000000000604482015290519081900360640190fd5b600160a060020a038581166000818152600e602090815260408083208054600160ff199091161765ffffffffff0019166101004264ffffffffff1602179055600d54815160e060020a632ba06e670281526004810195909552905161149b959190911693632ba06e679360248083019493928390030190829087803b1580156113de57600080fd5b505af11580156113f2573d6000803e3d6000fd5b505050506040513d602081101561140857600080fd5b505160408051600160a060020a03909216606060020a0260208084019190915281516014818503018152603490930191829052825182918401908083835b602083106114655780518252601f199092019160209182019101611446565b6001836020036101000a038019825116818451168082178552505050505050905001915050604051809103902060036001611d1a565b50611505856040516020018082600160a060020a0316600160a060020a0316606060020a028152601401915050604051602081830303815290604052604051808280519060200190808383602083106114655780518252601f199092019160209182019101611446565b5060105461151a90600163ffffffff6149e816565b6010556040517f023e16f300000000000000000000000000000000000000000000000000000000815260206004820190815260248201859052869350600160a060020a0384169163023e16f3918791879190819060440184848082843782019150509350505050600060405180830381600087803b15801561159b57600080fd5b505af11580156115af573d6000803e3d6000fd5b505050505050505050565b604080517fb01a9fb300000000000000000000000000000000000000000000000000000000815260006004820181905260248201849052915160609291829173__KeyHolderLibrary______________________9163b01a9fb39160448083019286929190829003018186803b15801561163357600080fd5b505af4158015611647573d6000803e3d6000fd5b505050506040513d6000823e601f3d908101601f19168201604052606081101561167057600080fd5b81019080805164010000000081111561168857600080fd5b8201602081018481111561169b57600080fd5b81518560208202830111640100000000821117156116b857600080fd5b50506020820151604090920151909891975095509350505050565b6000806000806060600080614e236116ea81611fdf565b151561172e576040805160e560020a62461bcd02815260206004820152600d6024820152600080516020615012833981519152604482015290519081900360640190fd5b88925082600160a060020a0316634dcc73966040518163ffffffff1660e060020a028152600401600060405180830381600087803b15801561176f57600080fd5b505af1158015611783573d6000803e3d6000fd5b505050506040513d6000823e601f3d908101601f1916820160405260e08110156117ac57600080fd5b8151602083015160408401516060850151608086018051949693959294919392830192916401000000008111156117e257600080fd5b820160208101848111156117f557600080fd5b815164010000000081118282018710171561180f57600080fd5b5050929190602001805164010000000081111561182b57600080fd5b8201602081018481111561183e57600080fd5b815164010000000081118282018710171561185857600080fd5b5050929190602001805164010000000081111561187457600080fd5b8201602081018481111561188757600080fd5b81516401000000008111828201871017156118a157600080fd5b50509291905050505050505050925050600d60009054906101000a9004600160a060020a0316600160a060020a0316632ba06e678a6040518263ffffffff1660e060020a0281526004018082600160a060020a0316600160a060020a03168152602001915050602060405180830381600087803b15801561192157600080fd5b505af1158015611935573d6000803e3d6000fd5b505050506040513d602081101561194b57600080fd5b5051600160a060020a038a166000908152600e6020526040902054839060ff16600481111561197657fe5b600160a060020a038c166000908152600e6020908152604091829020805460019182018054855160026101009583161586026000190190921691909104601f810186900486028201860190965285815261ffff97909716969290910464ffffffffff16939092839190830182828015611a305780601f10611a0557610100808354040283529160200191611a30565b820191906000526020600020905b815481529060010190602001808311611a1357829003601f168201915b505050505090509750975097509750975050505091939590929450565b6011546040805160e360020a631e78cfe902815233600482015290516000928392611b6092600160a060020a039092169163f3c67f489160248082019260209290919082900301818887803b158015611aa557600080fd5b505af1158015611ab9573d6000803e3d6000fd5b505050506040513d6020811015611acf57600080fd5b505160408051600160a060020a03909216606060020a0260208084019190915281516014818503018152603490930191829052825182918401908083835b60208310611b2c5780518252601f199092019160209182019101611b0d565b6001836020036101000a03801982511681845116808217855250505050505090500191505060405180910390206003614712565b8015611b6f5750611b6f6110e8565b8015611b81575061ea608a61ffff1610155b1515611b8c57600080fd5b6011546040805160e360020a631e78cfe90281523360048201529051611c4c928d928d92600160a060020a039092169163f3c67f48916024808201926020929091908290030181600087803b158015611be457600080fd5b505af1158015611bf8573d6000803e3d6000fd5b505050506040513d6020811015611c0e57600080fd5b5051604080516020601f8c018190048102820181019092528a81528d918d91908d908d90819084018382808284378201915050505050508a8a6149fe565b6011546040805160e360020a631e78cfe90281523360048201529051929350600160a060020a039091169163f3c67f48916024808201926020929091908290030181600087803b158015611c9f57600080fd5b505af1158015611cb3573d6000803e3d6000fd5b505050506040513d6020811015611cc957600080fd5b5051604080518381529051600160a060020a03909216918a917f36b518fed88ed88d56e6197f8ca72f326d86ff0612dc364838d93c4d5daab5a9919081900360200190a39998505050505050505050565b604080517f5d601c3a000000000000000000000000000000000000000000000000000000008152600060048201819052602482018690526044820185905260648201849052915173__KeyHolderLibrary______________________91635d601c3a916084808301926020929190829003018186803b158015611d9c57600080fd5b505af4158015611db0573d6000803e3d6000fd5b505050506040513d6020811015611dc657600080fd5b5051949350505050565b73__ClaimHolderLibrary____________________63428e59ee6000600488888888886040518863ffffffff1660e060020a02815260040180888152602001878152602001806020018060200180602001806020018060200186810386528b818151815260200191508051906020019060200280838360005b83811015611e61578181015183820152602001611e49565b5050505090500186810385528a818151815260200191508051906020019060200280838360005b83811015611ea0578181015183820152602001611e88565b50505050905001868103845289818151815260200191508051906020019080838360005b83811015611edc578181015183820152602001611ec4565b50505050905090810190601f168015611f095780820380516001836020036101000a031916815260200191505b5086810383528851815288516020918201918a019080838360005b83811015611f3c578181015183820152602001611f24565b50505050905090810190601f168015611f695780820380516001836020036101000a031916815260200191505b508681038252875181528751602091820191808a01910280838360005b83811015611f9e578181015183820152602001611f86565b505050509050019c5050505050505050505050505060006040518083038186803b158015611fcb57600080fd5b505af41580156115af573d6000803e3d6000fd5b600061207e336040516020018082600160a060020a0316600160a060020a0316606060020a0281526014019150506040516020818303038152906040526040518082805190602001908083835b6020831061204b5780518252601f19909201916020918201910161202c565b6001836020036101000a038019825116818451168082178552505050505050905001915050604051809103902083614712565b801561208d575061208d6110e8565b92915050565b600080600080600060606000806120a8614ec3565b6120b0613c6c565b15156120f4576040805160e560020a62461bcd02815260206004820152600d6024820152600080516020615012833981519152604482015290519081900360640190fd5b60008a815260156020908152604091829020825161014081018452815460ff8082161515835261010080830490911615158386015261ffff6201000083048116848801526401000000008304811660608501526601000000000000830481166080850152680100000000000000008304811660a08501526a010000000000000000000083041660c0840152600160a060020a03606060020a9092049190911660e083015260018084015482840152600280850180548851601f948216159095026000190116919091049182018690048602830186019096528082529194929361012086019391929083018282801561222d5780601f106122025761010080835404028352916020019161222d565b820191906000526020600020905b81548152906001019060200180831161221057829003601f168201915b50505050508152505090508060000151151561224857600080fd5b806060015181608001518260e001518361010001518460c0015185610120015186602001518760a001518292509850985098509850985098509850985050919395975091939597565b604080517fabefd8e70000000000000000000000000000000000000000000000000000000081526000600482018190526024820185905260448201849052915173__KeyHolderLibrary______________________9163abefd8e7916064808301926020929190829003018186803b15801561230c57600080fd5b505af4158015612320573d6000803e3d6000fd5b505050506040513d602081101561233657600080fd5b50519392505050565b6000614e2261234d81611fdf565b1515612391576040805160e560020a62461bcd02815260206004820152600d6024820152600080516020615012833981519152604482015290519081900360640190fd5b61ea6061ffff8a16106123a357600080fd5b6123ac8a614bdc565b6123ef8989338a8a8a8a8080601f0160208091040260200160405190810160405280939291908181526020018383808284378201915050505050508960006149fe565b50506017549998505050505050505050565b600880546009805460408051602060026101006001861615026000190190941693909304601f8101849004840282018401909252818152600160a060020a0385169574010000000000000000000000000000000000000000860461ffff908116967601000000000000000000000000000000000000000000008104821696780100000000000000000000000000000000000000000000000090910490911694919390918301828280156124f55780601f106124ca576101008083540402835291602001916124f5565b820191906000526020600020905b8154815290600101906020018083116124d857829003601f168201915b50505060028085018054604080516020601f60001961010060018716150201909416959095049283018590048502810185019091528181529596959450909250908301828280156125875780601f1061255c57610100808354040283529160200191612587565b820191906000526020600020905b81548152906001019060200180831161256a57829003601f168201915b5050505060038301805460408051602060026001851615610100026000190190941693909304601f81018490048402820184019092528181529495949350908301828280156126175780601f106125ec57610100808354040283529160200191612617565b820191906000526020600020905b8154815290600101906020018083116125fa57829003601f168201915b5050505050905087565b604080517f5c02fae100000000000000000000000000000000000000000000000000000000815260006004828101829052602483015260448201849052915173__ClaimHolderLibrary____________________91635c02fae1916064808301926020929190829003018186803b15801561269b57600080fd5b505af41580156126af573d6000803e3d6000fd5b505050506040513d60208110156126c557600080fd5b505192915050565b604080517f3f47616d0000000000000000000000000000000000000000000000000000000081526000600482018190526024820185905260448201849052915173__KeyHolderLibrary______________________91633f47616d916064808301926020929190829003018186803b15801561230c57600080fd5b6000612752614d0a565b80156127c45750600754604080517e6d96e0000000000000000000000000000000000000000000000000000000008152336004820181905260248201529051600160a060020a0390921691626d96e0916044808201926020929091908290030181600087803b15801561116f57600080fd5b905090565b614e246127d581611fdf565b1515612819576040805160e560020a62461bcd02815260206004820152600d6024820152600080516020615012833981519152604482015290519081900360640190fd5b50600160a060020a03166000908152600c60205260409020805460ff19166001179055565b600080336000908152600e602052604090205460ff16600481111561285f57fe5b148061288857506004336000908152600e602052604090205460ff16600481111561288657fe5b145b1515612904576040805160e560020a62461bcd02815260206004820152603360248201527f506172746e65727368697020616c72656164792070656e64696e672c2061757460448201527f686f72697a6564206f722072656a656374656400000000000000000000000000606482015290519081900360840190fd5b336000908152600e602052604081205460ff16600481111561292257fe5b141561297857600f80546001810182556000919091527f8d1108e10bcb7c27dddfc02ed9d693a074039d026cf4ea4240b40f7d581ac80201805473ffffffffffffffffffffffffffffffffffffffff1916331790555b336000908152600e60205260409020805460ff191660021781556129a0906001018484614e49565b506040517f0d2494fa9d986b19f5bdb30578b098459e79b21b39c38f53775fd34657d868c090600090a150600192915050565b60016129de81611fdf565b1515612a22576040805160e560020a62461bcd02815260206004820152600d6024820152600080516020615012833981519152604482015290519081900360640190fd5b6002600160a060020a0383166000908152600e602052604090205460ff166004811115612a4b57fe5b14612aa0576040805160e560020a62461bcd02815260206004820152601760248201527f506172746e6572206d7573742062652050656e64696e67000000000000000000604482015290519081900360640190fd5b50600160a060020a03166000908152600e60205260409020805460ff19166003179055565b6060614e23612ad381611fdf565b1515612b17576040805160e560020a62461bcd02815260206004820152600d6024820152600080516020615012833981519152604482015290519081900360640190fd5b600f805480602002602001604051908101604052809291908181526020018280548015612b6d57602002820191906000526020600020905b8154600160a060020a03168152600190910190602001808311612b4f575b505050505091505b5090565b6000806001612b8781611fdf565b1515612bcb576040805160e560020a62461bcd02815260206004820152600d6024820152600080516020615012833981519152604482015290519081900360640190fd5b600160a060020a0386166000908152600e602052604081205460ff166004811115612bf257fe5b1480612c2457506004600160a060020a0387166000908152600e602052604090205460ff166004811115612c2257fe5b145b1515612ca0576040805160e560020a62461bcd02815260206004820152602f60248201527f506172746e65727368697020636f6e7472616374206d75737420626520556e6b60448201527f6e6f776e206f722052656d6f7665640000000000000000000000000000000000606482015290519081900360840190fd5b6040517f5da601fd00000000000000000000000000000000000000000000000000000000815260206004820190815260248201869052879450600160a060020a03851691635da601fd918891889190819060440184848082843782019150509350505050602060405180830381600087803b158015612d1e57600080fd5b505af1158015612d32573d6000803e3d6000fd5b505050506040513d6020811015612d4857600080fd5b505191508115612ee357600160a060020a0386166000908152600e602052604081205460ff166004811115612d7957fe5b1415612dd857600f80546001810182556000919091527f8d1108e10bcb7c27dddfc02ed9d693a074039d026cf4ea4240b40f7d581ac80201805473ffffffffffffffffffffffffffffffffffffffff1916600160a060020a0388161790555b600160a060020a038681166000818152600e602090815260408083208054600160ff199091161765ffffffffff0019166101004264ffffffffff1602179055600d54815160e060020a632ba06e6702815260048101959095529051612e60959190911693632ba06e679360248083019493928390030190829087803b1580156113de57600080fd5b50612eca866040516020018082600160a060020a0316600160a060020a0316606060020a028152601401915050604051602081830303815290604052604051808280519060200190808383602083106114655780518252601f199092019160209182019101611446565b50601054612edf90600163ffffffff6149e816565b6010555b505050505050565b604080517f67d4865f000000000000000000000000000000000000000000000000000000008152600060048201819052602482018590528315156044830152915173__KeyHolderLibrary______________________916367d4865f916064808301926020929190829003018186803b15801561230c57600080fd5b60105481565b600081815260056020908152604091829020805483518184028101840190945280845260609392830182828015612fc457602002820191906000526020600020905b81548152600190910190602001808311612faf575b50505050509050919050565b600d546040805160e360020a631e78cfe902815233600482015290516000928392600160a060020a039091169163f3c67f489160248082019260209290919082900301818787803b15801561302457600080fd5b505af1158015613038573d6000803e3d6000fd5b505050506040513d602081101561304e57600080fd5b5051600160a060020a031614156130695760005b905061119e565b600d546040805160e360020a631e78cfe90281523360048201529051600e92600092600160a060020a039091169163f3c67f489160248082019260209290919082900301818787803b1580156130be57600080fd5b505af11580156130d2573d6000803e3d6000fd5b505050506040513d60208110156130e857600080fd5b5051600160a060020a0316815260208101919091526040016000205460ff16600481111561306257fe5b60006001336000908152600e602052604090205460ff16600481111561313457fe5b141561317d57336000908152600e60205260408120805465ffffffffff001916815561316591600190910190614f19565b60105461317990600163ffffffff614d2d16565b6010555b50336000908152600e60205260409020805460ff19166004179055600190565b606073__KeyHolderLibrary______________________63746199f96000846040518363ffffffff1660e060020a028152600401808381526020018281526020019250505060006040518083038186803b1580156131fa57600080fd5b505af415801561320e573d6000803e3d6000fd5b505050506040513d6000823e601f3d908101601f19168201604052602081101561323757600080fd5b81019080805164010000000081111561324f57600080fd5b8201602081018481111561326257600080fd5b815185602082028301116401000000008211171561327f57600080fd5b50909695505050505050565b613293614d0a565b15156132d7576040805160e560020a62461bcd02815260206004820152600d6024820152600080516020615012833981519152604482015290519081900360640190fd5b6132df614d3f565b80156133665750601160009054906101000a9004600160a060020a0316600160a060020a0316638f2691cc6040518163ffffffff1660e060020a028152600401602060405180830381600087803b15801561333957600080fd5b505af115801561334d573d6000803e3d6000fd5b505050506040513d602081101561336357600080fd5b50515b1561336e5733ff5b565b614e2261337c81611fdf565b15156133c0576040805160e560020a62461bcd02815260206004820152600d6024820152600080516020615012833981519152604482015290519081900360640190fd5b6133cc60138686614e49565b50612ee360148484614e49565b614e226133e581611fdf565b1515613429576040805160e560020a62461bcd02815260206004820152600d6024820152600080516020615012833981519152604482015290519081900360640190fd5b61343282614bdc565b5050565b73__ClaimHolderLibrary____________________63e4832fc6600060048686866040518663ffffffff1660e060020a02815260040180868152602001858152602001806020018060200180602001848103845287818151815260200191508051906020019060200280838360005b838110156134bd5781810151838201526020016134a5565b50505050905001848103835286818151815260200191508051906020019080838360005b838110156134f95781810151838201526020016134e1565b50505050905090810190601f1680156135265780820380516001836020036101000a031916815260200191505b508481038252855181528551602091820191808801910280838360005b8381101561355b578181015183820152602001613543565b505050509050019850505050505050505060006040518083038186803b15801561358457600080fd5b505af4158015613598573d6000803e3d6000fd5b50505050505050565b336000908152600c602052604090205460ff1615613609576040805160e560020a62461bcd02815260206004820152601360248201527f596f752061726520626c61636b6c697374656400000000000000000000000000604482015290519081900360640190fd5b8233600160a060020a03167f05150cb7936a26705cc0a79475d44bb1a6dc530605fbaab1a7a86a162b66222884846040518080602001828103825284848281815260200192508082843760405192018290039550909350505050a3505050565b600080600161367781611fdf565b15156136bb576040805160e560020a62461bcd02815260206004820152600d6024820152600080516020615012833981519152604482015290519081900360640190fd5b6001600160a060020a0385166000908152600e602052604090205460ff1660048111156136e457fe5b148061371657506003600160a060020a0385166000908152600e602052604090205460ff16600481111561371457fe5b145b1515613792576040805160e560020a62461bcd02815260206004820152602a60248201527f506172746e657273686970206d75737420626520417574686f72697a6564206f60448201527f722052656a656374656400000000000000000000000000000000000000000000606482015290519081900360840190fd5b83925082600160a060020a0316638af1d76b6040518163ffffffff1660e060020a028152600401602060405180830381600087803b1580156137d357600080fd5b505af11580156137e7573d6000803e3d6000fd5b505050506040513d60208110156137fd57600080fd5b505191508115613aef576001600160a060020a0385166000908152600e602052604090205460ff16600481111561383057fe5b141561388257600160a060020a0384166000908152600e60205260408120805465ffffffffff001916815561386a91600190910190614f19565b60105461387e90600163ffffffff614d2d16565b6010555b600d546040805160e060020a632ba06e67028152600160a060020a03878116600483015291516138d9939290921691632ba06e67916024808201926020929091908290030181600087803b158015611aa557600080fd5b156139f257600d546040805160e060020a632ba06e67028152600160a060020a03878116600483015291516139f0939290921691632ba06e67916024808201926020929091908290030181600087803b15801561393557600080fd5b505af1158015613949573d6000803e3d6000fd5b505050506040513d602081101561395f57600080fd5b505160408051600160a060020a03909216606060020a0260208084019190915281516014818503018152603490930191829052825182918401908083835b602083106139bc5780518252601f19909201916020918201910161399d565b6001836020036101000a038019825116818451168082178552505050505050905001915050604051809103902060036126cd565b505b613a5b846040516020018082600160a060020a0316600160a060020a0316606060020a02815260140191505060405160208183030381529060405260405180828051906020019080838360208310611b2c5780518252601f199092019160209182019101611b0d565b15613acb57613ac9846040516020018082600160a060020a0316600160a060020a0316606060020a028152601401915050604051602081830303815290604052604051808280519060200190808383602083106139bc5780518252601f19909201916020918201910161399d565b505b600160a060020a0384166000908152600e60205260409020805460ff191660041790555b50505050565b606080613b00613c6c565b1515613b44576040805160e560020a62461bcd02815260206004820152600d6024820152600080516020615012833981519152604482015290519081900360640190fd5b6013805460408051602060026001851615610100026000190190941693909304601f810184900484028201840190925281815260149290918491830182828015613bcf5780601f10613ba457610100808354040283529160200191613bcf565b820191906000526020600020905b815481529060010190602001808311613bb257829003601f168201915b5050845460408051602060026001851615610100026000190190941693909304601f810184900484028201840190925281815295975086945092508401905082828015613c5d5780601f10613c3257610100808354040283529160200191613c5d565b820191906000526020600020905b815481529060010190602001808311613c4057829003601f168201915b50505050509050915091509091565b6012546000908190600160a060020a031663b90d3d0c613c8a614999565b6040518263ffffffff1660e060020a0281526004018082600160a060020a0316600160a060020a03168152602001915050608060405180830381600087803b158015613cd557600080fd5b505af1158015613ce9573d6000803e3d6000fd5b505050506040513d6080811015613cff57600080fd5b5051601254909150600160a060020a0316626d96e0613d1c614999565b6040805160e060020a63ffffffff8516028152600160a060020a0390921660048301523360248301525160448083019260209291908290030181600087803b158015613d6757600080fd5b505af1158015613d7b573d6000803e3d6000fd5b505050506040513d6020811015613d9157600080fd5b505180613e8a5750601254600160a060020a0316626d96e0613db1614999565b613db9614999565b6040518363ffffffff1660e060020a0281526004018083600160a060020a0316600160a060020a0316815260200182600160a060020a0316600160a060020a0316815260200192505050602060405180830381600087803b158015613e1d57600080fd5b505af1158015613e31573d6000803e3d6000fd5b505050506040513d6020811015613e4757600080fd5b50518015613e8a5750613e58614683565b80613e665750613e666143ab565b80613e775750613e77614e21611fdf565b80613e8a575080158015613e8a57503315155b91505090565b600073__ClaimHolderLibrary____________________63bd2d0c28600060048a8a8a8a8a8a6040518963ffffffff1660e060020a0281526004018089815260200188815260200187815260200186815260200185600160a060020a0316600160a060020a03168152602001806020018060200180602001848103845287818151815260200191508051906020019080838360005b83811015613f3d578181015183820152602001613f25565b50505050905090810190601f168015613f6a5780820380516001836020036101000a031916815260200191505b50848103835286518152865160209182019188019080838360005b83811015613f9d578181015183820152602001613f85565b50505050905090810190601f168015613fca5780820380516001836020036101000a031916815260200191505b50848103825285518152855160209182019187019080838360005b83811015613ffd578181015183820152602001613fe5565b50505050905090810190601f16801561402a5780820380516001836020036101000a031916815260200191505b509b50505050505050505050505060206040518083038186803b15801561405057600080fd5b505af4158015614064573d6000803e3d6000fd5b505050506040513d602081101561407a57600080fd5b5051979650505050505050565b6000614e2261409581611fdf565b15156140d9576040805160e560020a62461bcd02815260206004820152600d6024820152600080516020615012833981519152604482015290519081900360640190fd5b61ea6061ffff8a16106140eb57600080fd5b61412e8989338a8a8a8a8080601f0160208091040260200160405190810160405280939291908181526020018383808284378201915050505050508960006149fe565b505060175498975050505050505050565b600073__KeyHolderLibrary______________________63e9356c6f60008686866040518563ffffffff1660e060020a0281526004018085815260200184600160a060020a0316600160a060020a0316815260200183815260200180602001828103825283818151815260200191508051906020019080838360005b838110156141d35781810151838201526020016141bb565b50505050905090810190601f1680156142005780820380516001836020036101000a031916815260200191505b509550505050505060206040518083038186803b158015611d9c57600080fd5b6000614e2261422e81611fdf565b1515614272576040805160e560020a62461bcd02815260206004820152600d6024820152600080516020615012833981519152604482015290519081900360640190fd5b6000838152601560205260409020805490925060ff161580156142a55750815461ea6064010000000090910461ffff1610155b15156142b057600080fd5b6016805460018181018084556000939093527fd833147d7dc355ba459fc788f669e58cfaf9dc25ddcd0702e87d69c7b51242899091018590556142f9919063ffffffff614d2d16565b8254600163ffff0000199091166201000061ffff938416021760ff1916178084556801000000000000000090041660009081526015602052604090205460ff16156143595781546143599068010000000000000000900461ffff16614bdc565b81546001830154604080518681529051606060020a909304600160a060020a0316927f47324225634f28f9dce66d27f63808da9fdf4d1c1b6e518122bf040f41e99c5e916020908290030190a3505050565b600d546040805160e360020a631e78cfe90281523360048201529051600092600192600e928592600160a060020a03169163f3c67f4891602480830192602092919082900301818787803b15801561440257600080fd5b505af1158015614416573d6000803e3d6000fd5b505050506040513d602081101561442c57600080fd5b5051600160a060020a0316815260208101919091526040016000205460ff16600481111561445657fe5b14905090565b614e2461446881611fdf565b15156144ac576040805160e560020a62461bcd02815260206004820152600d6024820152600080516020615012833981519152604482015290519081900360640190fd5b50600160a060020a03166000908152600c60205260409020805460ff19169055565b6000806000606080606073__ClaimHolderLibrary____________________638522d0eb6004896040518363ffffffff1660e060020a0281526004018083815260200182600019166000191681526020019250505060006040518083038186803b15801561453b57600080fd5b505af415801561454f573d6000803e3d6000fd5b505050506040513d6000823e601f3d908101601f1916820160405260c081101561457857600080fd5b81516020830151604084015160608501805193959294919391830192916401000000008111156145a757600080fd5b820160208101848111156145ba57600080fd5b81516401000000008111828201871017156145d457600080fd5b505092919060200180516401000000008111156145f057600080fd5b8201602081018481111561460357600080fd5b815164010000000081118282018710171561461d57600080fd5b5050929190602001805164010000000081111561463957600080fd5b8201602081018481111561464c57600080fd5b815164010000000081118282018710171561466657600080fd5b505092919050505095509550955095509550955091939550919395565b6011546040805160e360020a631e78cfe902815233600482015290516000923092600160a060020a039091169163f3c67f489160248082019260209290919082900301818887803b1580156146d757600080fd5b505af11580156146eb573d6000803e3d6000fd5b505050506040513d602081101561470157600080fd5b5051600160a060020a031614905090565b604080517fd8188a400000000000000000000000000000000000000000000000000000000081526000600482018190526024820185905260448201849052915173__KeyHolderLibrary______________________9163d8188a40916064808301926020929190829003018186803b15801561230c57600080fd5b600c6020526000908152604090205460ff1681565b336000908152600c602052604090205460ff161561480a576040805160e560020a62461bcd02815260206004820152601360248201527f596f752061726520626c61636b6c697374656400000000000000000000000000604482015290519081900360640190fd5b8333600160a060020a03167f32f8dc42e98366985a87dcc6a8c1d94974eb112f58c75ef95901be58cf266a3d858585604051808481526020018060200182810382528484828181526020019250808284376040519201829003965090945050505050a350505050565b606061487d613c6c565b15156148c1576040805160e560020a62461bcd02815260206004820152600d6024820152600080516020615012833981519152604482015290519081900360640190fd5b601680548060200260200160405190810160405280929190818152602001828054801561490d57602002820191906000526020600020905b8154815260200190600101908083116148f9575b5050505050905090565b604080517f0f982bac00000000000000000000000000000000000000000000000000000000815260006004820181905260248201849052915160609273__KeyHolderLibrary______________________92630f982bac9260448083019392829003018186803b1580156131fa57600080fd5b601254600160a060020a031681565b6006546040805160e060020a632ba06e670281523060048201529051600092600160a060020a031691632ba06e6791602480830192602092919082900301818787803b15801561116f57600080fd5b6000828201838110156149f757fe5b9392505050565b600080614a1760016017546149e890919063ffffffff16565b60178190556000908152601560205260409020905061ea6061ffff8b1610614a6057805469ffff000000000000000019166801000000000000000061ffff851602178155614ace565b6017546016805460018181018084556000939093527fd833147d7dc355ba459fc788f669e58cfaf9dc25ddcd0702e87d69c7b512428990910192909255614aac9163ffffffff614d2d16565b815460ff1961ffff92909216620100000263ffff000019909116171660011781555b838160000160016101000a81548160ff021916908315150217905550898160000160046101000a81548161ffff021916908361ffff160217905550888160000160066101000a81548161ffff021916908361ffff1602179055508581600001600a6101000a81548161ffff021916908361ffff1602179055508781600001600c6101000a815481600160a060020a030219169083600160a060020a031602179055508681600101816000191690555084816002019080519060200190614b95929190614f60565b5060175460408051918252517f1436ef0a63d102072b70744adedc4e9c88487529e51f8624fc3ab50904472f1e9181900360200190a1505060175498975050505050505050565b60008181526015602052604081209080808411614bf857600080fd5b825460ff161515614c0857600080fd5b601654614c1c90600163ffffffff614d2d16565b835462010000900461ffff161015614cb55760168054614c4390600163ffffffff614d2d16565b81548110614c4d57fe5b6000918252602080832091909101548083526015909152604090912084546016805493955091935084926201000090910461ffff16908110614c8b57fe5b6000918252602090912001558254815463ffff00001916620100009182900461ffff169091021781555b6016805490614cc8906000198301614fce565b50825460ff191683556040805185815290517f480c8c4f142c9ceb3d0b0d7675300f10573a6cd66fca3390578e7851815464599181900360200190a150505050565b6000614d14614999565b600160a060020a031633600160a060020a031614905090565b600082821115614d3957fe5b50900390565b600080805b600f54821015614e40576001600e6000600f85815481101515614d6357fe5b6000918252602080832090910154600160a060020a0316835282019290925260400190205460ff166004811115614d9657fe5b1415614e3557600f805483908110614daa57fe5b9060005260206000200160009054906101000a9004600160a060020a0316905080600160a060020a0316638af1d76b6040518163ffffffff1660e060020a028152600401602060405180830381600087803b158015614e0857600080fd5b505af1158015614e1c573d6000803e3d6000fd5b505050506040513d6020811015614e3257600080fd5b50505b600190910190614d44565b60019250505090565b828054600181600116156101000203166002900490600052602060002090601f016020900481019282601f10614e8a5782800160ff19823516178555614eb7565b82800160010185558215614eb7579182015b82811115614eb7578235825591602001919060010190614e9c565b50612b75929150614ff7565b604080516101408101825260008082526020820181905291810182905260608082018390526080820183905260a0820183905260c0820183905260e0820183905261010082019290925261012081019190915290565b50805460018160011615610100020316600290046000825580601f10614f3f5750614f5d565b601f016020900490600052602060002090810190614f5d9190614ff7565b50565b828054600181600116156101000203166002900490600052602060002090601f016020900481019282601f10614fa157805160ff1916838001178555614eb7565b82800160010185558215614eb7579182015b82811115614eb7578251825591602001919060010190614fb3565b815481835581811115614ff257600083815260209020614ff2918101908301614ff7565b505050565b61119e91905b80821115612b755760008155600101614ffd56004163636573732064656e69656400000000000000000000000000000000000000a165627a7a72305820cfc6dc03b7bf4c058b761b8a2d28416674a6829da857a3cef7cc93f37a8a42270029",
  "source": "pragma solidity ^0.4.24;\n\nimport \"./access/Permissions.sol\";\nimport \"./content/Profile.sol\";\nimport \"./content/Documents.sol\";\n\n/**\n * @title A Workspace contract.\n * @author Talao, Polynomial, SlowSense, Blockchain Partners.\n */\ncontract Workspace is Permissions, Profile, Documents {\n\n    /**\n     * @dev Constructor.\n     */\n    constructor(\n        address _foundation,\n        address _token,\n        uint16 _category,\n        uint16 _asymetricEncryptionAlgorithm,\n        uint16 _symetricEncryptionAlgorithm,\n        bytes _asymetricEncryptionPublicKey,\n        bytes _symetricEncryptionEncryptedKey,\n        bytes _encryptedSecret\n    )\n        Permissions(\n            _foundation,\n            _token,\n            _category,\n            _asymetricEncryptionAlgorithm,\n            _symetricEncryptionAlgorithm,\n            _asymetricEncryptionPublicKey,\n            _symetricEncryptionEncryptedKey,\n            _encryptedSecret\n        )\n        public\n    {\n        foundation = Foundation(_foundation);\n        token = TalaoToken(_token);\n        identityInformation.creator = msg.sender;\n        identityInformation.category = _category;\n        identityInformation.asymetricEncryptionAlgorithm = _asymetricEncryptionAlgorithm;\n        identityInformation.symetricEncryptionAlgorithm = _symetricEncryptionAlgorithm;\n        identityInformation.asymetricEncryptionPublicKey = _asymetricEncryptionPublicKey;\n        identityInformation.symetricEncryptionEncryptedKey = _symetricEncryptionEncryptedKey;\n        identityInformation.encryptedSecret = _encryptedSecret;\n    }\n\n    /**\n     * @dev Destroy contract.\n     */\n    function destroyWorkspace() external onlyIdentityOwner {\n        if (cleanupPartnership() && foundation.renounceOwnershipInFoundation()) {\n            selfdestruct(msg.sender);\n        }\n    }\n\n    /**\n     * @dev Prevents accidental sending of ether.\n     */\n    function() public {\n        revert();\n    }\n}\n",
  "sourcePath": "/home/guix/talao/talao-contracts/contracts/Workspace.sol",
  "compiler": {
    "name": "solc",
    "version": "0.4.25+commit.59dbf8f1.Emscripten.clang"
  },
  "schemaVersion": "2.0.2",
  "updated_at": "2019-01-29T16:22:43.343Z"
}